:200000000C946F020C945E0F0C9498020C9498020C9498020C9498020C9498020C94980266
:200020000C9498020C9498020C9498020C9498020C9498020C9498020C9431060C94980253
:200040000C9498020C9498020C9498020C9498020C9498020C9498020C9498020C949802D0
:200060000C9498020C94980205A84CCDB2D44EB93836A9020C50B9918688083CA6AAAA2A84
:20008000BE000000803F7761746368646F672073797374656D2072657365740062726F77D0
:2000A0006E2D6F75742072657365740065787465726E616C20726573657400706F77657237
:2000C0002D6F6E207265736574002A2A2A2A2A20666C6970666C69704D415452495820286E
:2000E000723236343820323031332D30392D32362032333A323129202A2A2A2A2A002863E1
:20010000292032303133205068696C69707065204B65686C203C2070686B65686C206174E4
:2001200020676D61696C20646F7420636F6D203E001B5B324A0064656275673A20696E69DE
:2001400074004E3A2000573A2000453A2000443A20000D0A007461736B733A20485A3D25FA
:2001600075006D6F6E00145502C000000015034104E8030000646267000A2C038000000067
:20018000AC031404000000006D74780032C303C00000008304BB0F000000007461736B7310
:2001A0003A202553007461736B733A202553202575007461736B733A20696E6974007374A0
:2001C00061636B20252D37532025336420253364002025532025642025640069646C006DAC
:2001E0006F6E20256C7520256C752573006D61747269783A20696E697400706C61736D611D
:2002000000000000000000000000000000000000F20C60EA00006B61610000000000000069
:200220000000000000000000000000006D0860EA00007261696E0000000000000000000055
:200240000000000000000000990A60EA00007261696E626F770000000000000000000000BF
:2002600000000000880760EA00007374617273000000000000000000000000000000000078
:200280003E0960EA000064696167000000000000000000000000000000000000E80760EAFF
:2002A000000074657374000000000000000000000000000000000000D50C000000007370BA
:2002C0007269746573000000000000000000000000000000890B000000007374726F626FCA
:2002E00000000000000000000000000000000000170F000000006D61747269783A20707207
:200300006F673D2553202825642920255320256C75006175746F0075736572006C6F616482
:2003200020257520737072697465730005050510101008000A4B4B4B0A004B9696964B0045
:200340004B96FF964B004B9696964B000A4B4B4B0A000000000000000505021010F0083C2F
:200360000A4B4B4B0A004B9696964B004B96FF964B004B9696964B000A4B4B4B0A00000022
:2003800000000000050502101010F8780A4B4B4B0A004B9696964B004B96FF964B004B96C2
:2003A00096964B000A4B4B4B0A000000000000000505021010F0F8B40A4B4B4B0A004B9633
:2003C00096964B004B96FF964B004B9696964B000A4B4B4B0A000000000000006E616E005B
:2003E000696E660000407A10F35A00A0724E18090010A5D4E80000E87648170000E40B54B7
:20040000020000CA9A3B000000E1F505000080969800000040420F000000A08601000000FA
:20042000102700000000E803000000006400000000000A00000000000100000000002C7689
:20044000D888DC674F0823DFC1DFAE59E1B1B796E5E3E453C63AE651997696E8E6C2842605
:20046000EB898C9B62ED407C6FFCEFBC9C9F40F2BAA56FA5F490055A2AF75C936B6CF967B6
:200480006DC11BFCE0E40D47FEF520E6B500D0ED902E0300943577050080841E0800002044
:2004A0004E0A000000C80C333333330F986E12831141EF8D2114893BE65516CFFEE6DB18DC
:2004C000D1844B381BF77C1D901DA4BBE424203284725E228100C9F124ECA1E53D27112453
:2004E0001FBECFEFD8E0DEBFCDBF84B78093DE0514BE88E10FB6F89480936000109260004E
:200500000FBE11E0A0E0B1E0E0E3F9E302C005900D92A231B107D9F715E0A2E1B1E001C052
:200520001D92AE3DB107E1F70E94E4020C94961C0C9400002F923F924F925F926F927F92A1
:200540008F929F92AF92BF92CF92DF92EF92FF920F931F93CF93DF930DB71EB7C82FD92F13
:2005600008831983C62FD72F088119810DBF1EBFDF91CF911F910F91FF90EF90DF90CF9091
:20058000BF90AF909F908F907F906F905F904F903F902F900895C82FD92F088119810DBF8A
:2005A0001EBFDF91CF911F910F91FF90EF90DF90CF90BF90AF909F908F907F906F905F9089
:2005C0004F903F902F901895CF932FEF84E39CE0215080409040E1F700C0000028E288E192
:2005E00090E00FB6F894A895809360000FBE209360000E94DA038091DE0583FF0EC083E084
:200600000E941F0486E890E09F938F930E94D91B84E00E941F040F900F908091DE0582FF71
:200620000EC083E00E941F048CE990E09F938F930E94D91B84E00E941F040F900F9080917D
:20064000DE0581FF0EC083E00E941F048CEA90E09F938F930E94D91B84E00E941F040F90A9
:200660000F908091DE0580FF0EC083E00E941F048BEB90E09F938F930E94D91B84E00E949C
:200680001F040F900F90CFB7F8940E949C038111FCCFCFBF0E941F048AEC90E09F938F93BC
:2006A0000E94D91B84E00E941F0480E00E941F048EEF90E09F938F930E94D91B84E00E9479
:2006C0001F04CFB7F8940F900F900F900F900E949C038111FCCFCFBF0E946D0F0E94450533
:2006E00080E090E0CF9108954FB7F89490911401992331F03091120120911301321781F035
:2007000020911201E22FF0E0EB5EFE4F80832F5F209312019F5F9093140120E030E002C03F
:2007200021E030E04FBFC901089520E001972FEF8F3F9207D9F70895FF920F931F93CF9362
:20074000DF930FB7F89480911401882351F1E0911301F0E0EB5EFE4FF080599885E190E0A0
:200760000E949503C8E0D0E011E0812F8F2111F0599A01C0599880E190E00E949503110FC5
:20078000219799F7599A80E190E00E949503809113018F5F809313018091140181508093CF
:2007A00014010FBF80911401DF91CF911F910F91FF900895CF93519A599A509A589A80E068
:2007C00091E09093DB058093DA0510921201109213011092140181E391E09F938F930E94C6
:2007E000D91B8EE491E09F938F930E94D91B86E391E09F938F930E94D91B82E591E09F936A
:200800008F930E94D91BCFB7F8948DB79EB708960FB6F8949EBF0FBE8DBF0E949C0381113D
:20082000FCCFCFBFCF9108950E949C038111FCCF6AE070E080E090E00E941F13F5CF823010
:2008400089F028F4882341F08130D1F408C0833061F08430A9F40CC082E491E00BC086E4BC
:2008600091E008C08AE491E005C08EE491E002C082E591E09F938F930E94D91B0F900F90F6
:200880000895CF93DF93CDB7DEB7E7970FB6F894DEBF0FBECDBF4B015C012FE088E190E078
:2008A0000FB6F894A895809360000FBE2093600019821A821B821C82FE01359686E2DF01D3
:2008C0001D928A95E9F7C12CD12C760122242394312C2C0E3D1EC701B6012AE030E040E061
:2008E00050E00E94D51921E02BAB672B682B692B09F01BAA0E94C1126CAB7DAB8EAB9FABB3
:200900003FEFC31AD30AE30AF30AA895198200E010E0210143E1409F3001419F700C112476
:2009200082E691E0680E791E0330110519F40E94AB1005C0F3013B9645915491CA01AE015F
:20094000455D5F4FBE01615D7F4F0E94AE10811163C08BA59CA5ADA5BEA50097A105B105CE
:2009600081F58FB7F89482E00E941F048CA58F938BA58F9388A98F938FA58F937F926F92A8
:200980008EEB91E09F938F930E94D91B84E00E941F041FB7F8940FB6F894DEBF0FBECDBFB1
:2009A0000E949C038111FCCF1FBF29E088E190E00FB6F894A895809360000FBE20936000F8
:2009C000FFCF2BA9222341F1AC018FA598A90330110511F0930102C02BED31E05F934F933F
:2009E0009F938F933F932F9341ED51E05F934F931F929EE09F935F924F920E94FE1BD1011C
:200A00000D900020E9F72D01E1E04E1A51080FB6F894DEBF0FBECDBF0F5F1F4F043011051C
:200A200009F078CF3BA93323F9F083E00E941F043F922F92FF92EF92DF92CF922FA92F931B
:200A40003EA93F932DA92F933CA93F938FED91E09F938F930E94D91B84E00E941F040FB6C9
:200A6000F894DEBF0FBECDBF0E94C112A50194010E94D519A5019401261B370B480B590B3F
:200A8000CA01B9010E941F1326CF2F923F924F925F926F927F928F929F92AF92BF92CF924D
:200AA000DF92EF92FF920F931F93CF93DF93539A21E040E450E060E070E085E192E00E943F
:200AC00060128111A6C082E084BDC3E0C5BD9AEF97BD16BC15BA80936E0083E00E941F04BD
:200AE000CF9388EE8F9385E591E09F938F930E94D91B84E00E941F040F900F900F900F9092
:200B00000E949C038111FCCF612C712C93E1992E25EA222E21E0322E969CE001979CD00DEF
:200B20001124CE59DE4FFE013B96A591B491FE0134966491FE01359645905490FE013796D4
:200B4000A590B490FE013D9685919491FE013F9645915491C12CD12C8A0120E030E088244F
:200B600083947201AC01CD010E94DE11D82E811119C083E00E941F04DF93CF938BE991E08D
:200B80009F938F930E94D91B84E00E941F04CFB7F8940F900F900F900F900E949C038111E1
:200BA000FCCF1AC082E00E941F041F92DF92DF93CF933F922F920E94D91B84E00E941F0422
:200BC000CFB7F8940F900F900F900F900F900F900E949C038111FCCFCFBF2FEF621A720A07
:200BE00083E06816710409F097CFDF91CF911F910F91FF90EF90DF90CF90BF90AF909F9087
:200C00008F907F906F905F904F903F902F900C94871182E00E941F0482EB91E09F938F93BA
:200C20000E94D91B84E00E941F04CFB7F8940F900F900E949C038111FCCFCFBFDF91CF91A9
:200C40001F910F91FF90EF90DF90CF90BF90AF909F908F907F906F905F904F903F902F9022
:200C600008951F920F920FB60F9211242F933F934F935F936F937F938F939F93AF93BF9386
:200C8000EF93FF935B9A5B980E94F2100E94CA1281E00E94D211FF91EF91BF91AF919F9180
:200CA0008F917F916F915F914F913F912F910F900FBE0F901F90189583E280937C00809138
:200CC0007A00806480937A0080917A0086FDFCCF8091790080939C0484E280937C0080910D
:200CE0007A00806480937A0080917A0086FDFCCF8091790080939B0408957F928F929F92F4
:200D0000AF92BF92CF92DF92EF92FF920F931F93CF93DF937FB6F894459A811105C0459861
:200D2000459AEDE9F4E0D5C0BEE2EB2EB5E0FB2ECFE2D5E01DE2C12E15E0D12E4FEF50E068
:200D400060E07FEF0CEF802E04E0902E8EEFA82E82E0B82EB8C0D6012C91B6E02B9F900102
:200D60001124F701808190E0088110E00F5F1F4F2F3F310509F0A0F4FA01E21BF30BE89FD2
:200D80009001E99F300DF89F300D1124FB01E21BF30BEF2FFF279A01281B390BC90170C09D
:200DA0002F3FA1E03A0798F42F5F3109289FF001299FF00D389FF00D1124DB01AE1BBF0BBA
:200DC000AB2FBB27FA01E81BF90BCF0116C02E3FF2E03F07A8F4DA01A81BB90BF501E21B39
:200DE000F30BE89F9001E99F300DF89F300D1124CB01821B930B892F9927EFEFF0E042C0E0
:200E00002D3FA3E03A0790F4DA01A81BB90B2D5F3240289FF001299FF00D389FF00D112438
:200E20009B012E1B3F0BE32FFF2716C02C3FA4E03A07A8F4F401E21BF30BE89F9001E99F19
:200E4000300DF89F300D1124DB01A21BB30BAB2FBB27FA01E81BF90B8FEF90E013C0FA017B
:200E6000E81BF90B2B5F3440289FD001299FB00D389FB00D1124CB018A1B9B0B892F9927F8
:200E8000AFEFB0E0A09F9001A19F300DB09F300D1124D7013C93E09F9001E19F300DF09F13
:200EA000300D11243883809F9001819F300D909F300D1124F6013083F3E0EF1AF10823971E
:200EC00023E0C21AD10834E0CC39D30709F043CF26CF81918EBD0DB407FEFDCF85E0E03300
:200EE000F807B9F7AFECB7E01197F1F700C0000045987FBEDF91CF911F910F91FF90EF9079
:200F0000DF90CF90BF90AF909F908F907F9008950F931F93CF93882329F010923105109287
:200F2000300509C0809130059091310501969093310580933005C0913005EFE9F4E020E0AC
:200F400030E001E310E0C901B8010E94C1196C0F653538F4962F990F960F892F809540E06E
:200F600012C06A3A48F46555862F880F860F982F9095482F80E007C06A5A862F880F860FF5
:200F8000482F409590E0DF0111979C938083DF0112974C9333953396211581E3380799F67A
:200FA00080E00E947D0620919C0430E0ABEEB1E00E949519072F182F292F3327065F1F4FCF
:200FC0002F4F3F4FB801C901CF911F910F9108956F927F928F929F92AF92BF92CF92DF926D
:200FE000EF92FF920F931F93CF93DF9390909B04882319F01092300505C0809130058F5F74
:201000008093300580903005CDE9D4E0E0E0F0E048EC742E52E6A52EB12C66246A9427C01C
:201020007E01E00EF11E229FA001239F500D500D11244C0D5D1D749EC001759E900D112496
:20104000B5010E94AD19680DD7016C9311966C92119712969C922F5F3F4F0D5F1F4F2730B6
:201060003105F1F631966596E730F10559F0EE9F6001EF9FD00CD00C112400E010E020E002
:2010800030E0CECF81E00E947D0620919C0430E0AFEDB3E00E949519072F182F292F33270E
:2010A000065F1F4F2F4F3F4FB801C901DF91CF911F910F91FF90EF90DF90CF90BF90AF9044
:2010C0009F908F907F906F90089583E9EDE9F4E0DF011D928A95E9F708952F923F924F9263
:2010E0005F926F927F928F929F92AF92BF92CF92DF92EF92FF920F931F93CF93DF93882352
:2011000019F01092300505C0809130058F5F809330050E94650880919B0426EF829FC001F8
:201120001124492F465F40903005CFEACC2EC4E0DC2EDDE9AD2ED4E0BD2EC4E0D0E013E070
:20114000212E312C02E1802E912C55245A944FC0009FB001019F700D700D1124660D771DF9
:2011600055E5569FC001579F900D1124B4010E94C119640DDF01AD56BF4F6C93DF01AC5643
:20118000BF4F5C92DF01AB56BF4F4C93D901AD56BF4F6C93D901AC56BF4F5C92D901AB56E8
:2011A000BF4F4C93D601AE0DBF1D6C9311965C92119712964C93D501AE0DBF1D6C931196FE
:2011C0005C92119712964C9385E1E80EF11C015011097597255131090F3F5FEF150709F0B1
:2011E000B7CF83E0C81AD10823E0A20EB11C2197F0F0CC9F3001CD9F700C700C1124CE012F
:201200000396FC01EE0FFF1FE80FF91FE356FB4FC1018C1B9D0B9C01220F331F280F391FCB
:2012200023563B4FE12CF12C04E010E0D0CF81E00E947D0620919C0430E0AFEDB3E00E9456
:201240009519072F182F292F3327065F1F4F2F4F3F4FB801C901DF91CF911F910F91FF90A0
:20126000EF90DF90CF90BF90AF909F908F907F906F905F904F903F902F9008954F925F926C
:201280006F927F928F929F92AF92BF92CF92DF92EF92FF920F931F93CF93DF9320919B04FC
:2012A00094E6299F90011124D32ED394882349F180919C0490E0A0E0B0E0BA2FA92F982F20
:2012C00088270E94AB1A8DE2E0E3F5E0DF011D928A95E9F70E946508CFE9D4E00FEF13E0F7
:2012E0000E94A61AFE0132978083FE013197008318832396B5E0C233DB0791F781E00E942C
:201300007D0604E315E0B0E3EB2EB5E0FB2EE801512C81E3A82EB12C95E0892E912C6D2C05
:20132000712CCC24C3948881811123C00E94A61AB5010E94C119F7018083452C4A940E94CB
:20134000A61AB5010E94C119982FD7018C93552009F4B1C0842D0AC0B5E08B9FF00111249A
:20136000E05DFA4F20818150291749F38F3FA1F7A2C053942596E5E0EE0EF11CF9E05F1277
:20138000D2CFE2E3F5E06BE2962E76EDE72E79E2F72ECAE2D0E088248394A3E0CA2EDF018F
:2013A00011978C91D080692D0E94A119282F492FAD2CB12C3FEFD39EC00111247D2C791AD0
:2013C000C701AFEF4A9F801991091124BE010E94AD196A9D20016B9D500C7A9D500C1124FB
:2013E000489DC001941B1124919581959109BE010E94AD196A9DA0016B9D500D7A9D500DE5
:201400001124852F2330A1F028F4213051F0223029F40BC0243081F0253091F0382F272DC1
:2014200011C0452D272D3D2D0EC0252F3D2D02C0352D2D2D472D07C0452F2D2D372D03C071
:20144000252D372D4D2DDF0112978C9190E0DC01AA0FBB1FA80FB91FA356BB4F11964C93BE
:20146000119712963C9312972C93D8014C91842F992787FD90958D0D911D14165CF41197A9
:201480002C9130E0281739070CF007C04195D8014C9308C08330910514F0808303C0C08292
:2014A000D8011C9235960B5F1F4FB5E0EF35FB0709F075CF19C00E94A61AFE013397808303
:2014C0000E94A61AB4010E94C1198D5F88830E94A61AFE013197B3010E94C1198D0D80838C
:2014E000FE013297C08245CF80E00E947D0620919C0430E0AFEDB3E00E949519072F182FEC
:20150000292F3327065F1F4F2F4F3F4FB801C901DF91CF911F910F91FF90EF90DF90CF90BB
:20152000BF90AF909F908F907F906F905F904F9008952F923F924F925F926F927F928F92BF
:201540009F92AF92BF92CF92DF92EF92FF920F931F93CF93DF93882391F080919C0490E06F
:20156000A0E0B0E0BA2FA92F982F88270E94AB1A87E1E0E3F5E0DF011D928A95E9F780911E
:20158000450518161CF084E6809345050E94650880919B04BBE98B9FC0011124F5E69F2ED5
:2015A000990EC0E3D5E0A1E3EA2EA5E0FA2EB2E3CB2EB5E0DB2E00E010E08824839486E0BE
:2015C000A82EB12C92EE792E2CEE622E36E0532E45E1442E58815523C1F1F701A081F60145
:2015E0008081252F281B722F7F5F879D402D11244150692D869D600D112480E090E0B52D70
:20160000B21B9801220F331F200F311F12C0425E6C5EFB2FFE1BF73058F419014F9E200C3D
:20162000311C1124F101E356FB4FA083418362830196E82FF72FF80F5F174CF7773014F0A8
:20164000188220C05F5F58831DC00E94A61A60914505772767FD70950E94C119892B91F441
:2016600088820E94A61AD7018C930E94A61AB5010E94C1198F5FF6018083809146058F5F41
:20168000809346050F5F1F4F2396F3E0EF0EF11C23E0C20ED11C0730110509F09BCF81E0A9
:2016A0000E947D0680914605853078F01092460580914505833314F08A5005C0853114F031
:2016C000855001C081508093450520919C0430E0A0EDB3E00E949519072F182F292F332746
:2016E000075E1F4F2F4F3F4FB801C901DF91CF911F910F91FF90EF90DF90CF90BF90AF90FE
:201700009F908F907F906F905F904F903F902F9008952F923F924F925F926F927F928F92DD
:201720009F92AF92BF92CF92DF92EF92FF920F931F93CF93DF93811109C00E94650863E02D
:2017400070E0BCE22B2EC5E1FC2EB7C083E00E941F041F9283E08F938CE193E09F938F9369
:201760000E94D91B84E00E941F040F900F900F900F90C3E0D0E01CE20EC01C9FC0011D9FD7
:20178000900D1124BC01645D7C4F4CE250E0805D9A4F0E948E1B219780F7CFCF269EF0013D
:2017A000279EF00D1124E05DFA4FE380E594E594E594E594D480D594D594D594D5941081DC
:2017C000812C912CA12EBB24A7FCB09441E0A41AB10870C0412F4E0D473020F08FEF881AD0
:2017E000980A68C00181C5018819990926E00202800D911D11248E0F9F1FC0E0D0E050E03F
:201800009A01220F331F240F351F29014FC04D2D400F473008F049C0DC01AC0FBD1F12968D
:20182000CC903780642E712CD901F49EA00DB11D1124A356BB4F4C91442339F050E0430D5A
:20184000511D569547954C9301C03C92F69CD001F79CB00D1124A40DB51DA356BB4F1196D0
:201860004C911197442331F050E041505F4F5695479501C04FEF11964C93F69CD001F79CAA
:20188000B00D1124A20FB31FA356BB4F12964C911297442341F050E04C0D511D569547954C
:2018A00012964C9302C01296CC922697015008F0AECF94CF115008F08DCF6150710908F01B
:2018C0006DCF81E00E947D0683E090E0FCE2CF2EC7E0D0E043C0C89EF001C99EF00D11244E
:2018E000E05DFA4F5381D580AD2DA50FA383F480E6804E2D4F0D44831081A595A595A595CE
:20190000A595BB27A7FDB0952281332727FD3095BE01621B730B6A177B0744F05901A11AD6
:20192000B10817FDB394AA15BB051CF4D194D5825383A1814595459545954595552747FD28
:201940005095641775073CF02A1B3109A7FD3395421753071CF4E194E682F482019708F0EE
:20196000BACF20919C0430E0AFEDB3E00E949519072F182F292F3327065F1F4F2F4F3F4FF0
:20198000B801C901DF91CF911F910F91FF90EF90DF90CF90BF90AF909F908F907F906F90DE
:2019A0005F904F903F902F90089530919B0440919C0421E35FEF0CC0822F90E0FC01EE0F24
:2019C000FF1FE80FF91FE356FB4F308351834283215090F781E00E947D0664E170E080E098
:2019E00090E008952F923F924F925F926F927F928F929F92AF92BF92CF92DF92EF92FF929C
:201A00000F931F93CF93DF93CDB7DEB7A4970FB6F894DEBF0FBECDBF20919B049FEF299F5D
:201A200090011124A32FAF5FAA8B811118C08090300590903105A0903205B0903305C50121
:201A4000B40127E030E040E050E00E94F7192A833B834C835D830DE914E0198252C180E0A6
:201A600094EFA1E0B0E08093300590933105A0933205B093330500E315E0D12C3BC06C2DE3
:201A800070E080E090E00E9454142BEA3AEA4AE25FE30E94E2140E9445157801E60CF71C63
:201AA00020E030E040E853E40E94E21420E030E040E853E40E94C41320E030E040E853E4C8
:201AC0000E94C413282D392D4A2D5B2D0E94C4130E9428146695F7016483C394F7E06F0EF7
:201AE000711C27E0C212CBCFD3940F5F1F4FD21609F49DCF6D2D70E080E090E00E9454148C
:201B000020E030E040E05FE30E94E2140E94451520E030E040E853E40E94E2144B015C010F
:201B2000612C712CC12CABCFC301B2010E9456149B01AC0160E070E080E093E40E94C31369
:201B4000262F372F482F592F0E94E214BB89AC89ED89FE882B2F3A2F4E2F5F2D0E94C41379
:201B60000E944F1520E030E040E05EE30E94E2140E9445156E837F8388879987642D681926
:201B800070E080E090E00E9454146B017C019B01AC0160E070E080E892E40E94C313262FAE
:201BA000372F482F592F0E94E214BF89A88DE98DFA8D2B2F3A2FAF010E94C4130E944F15BC
:201BC00020E030E040E05EE30E94E2140E9445156A877B878C879D87A701960160E070E007
:201BE00080E493E40E94C313262F372F482F592F0E94E2146B01F82EE92E7B8D6C8D9D8D6C
:201C00008E8D272F362F492F582FF7016C2D7D2D8F2F9E2F0E94C4130E944F1525E239E486
:201C200042E15EE30E94E2140E9445156E877F87888B998B7F8D68A199A18AA1272F362F45
:201C4000492F582FF7016C2D7D2D8F2F9E2F0E94C4130E944F1520E030E040E05EE30E942D
:201C6000E2140E9445156B017C01C801820D931D9CA38BA32A853B854C855D856E817F8103
:201C8000888599850E94C4132E853F85488959890E94C413A70196010E94C41320E030E035
:201CA00040E053E40E94E2140E942814ABA1BCA16C93EFEF1196EC931197FA891296FC9349
:201CC0002FEF421A520A620A720A83E0280E311C95E12916310409F027CFA981AF5FA98323
:201CE0008A819B81AC81BD810196A11DB11D8A839B83AC83BD830B5E1F4F9981973009F4E0
:201D00005CC0A9816A2F70E080E090E00E9454146B017C019B01AC0160E070E080E093E421
:201D20000E94C313262F372F482F592F0E94E2146B8B7C8B8D8B9E8BA701960160E070E0CC
:201D400080E892E40E94C313262F372F482F592F0E94E2146F8B788F898F9A8F6A817B81B2
:201D60008C819D810E9456149B01AC0160E070E080E892E40E94C313262F372F482F592F43
:201D80000E94E2146B8F7C8F8D8F9E8FA701960160E070E088EC92E40E94C313262F372F71
:201DA000482F592F0E94E2146F8F78A389A39AA324013501212C312CB7CED501C40101974D
:201DC000A109B1098093300590933105A0933205B093330581E00E947D0620919C0430E032
:201DE000AFEDB3E00E949519072F182F292F3327065F1F4F2F4F3F4FB801C901A4960FB6D4
:201E0000F894DEBF0FBECDBFDF91CF911F910F91FF90EF90DF90CF90BF90AF909F908F9068
:201E20007F906F905F904F903F902F900895CF92DF92EF92FF9240919B0420919C0430E0E6
:201E4000ABEEB1E00E949519C72ED82EE92EFF248AE0C80ED11CE11CF11C21E30CC0822F1B
:201E600090E0FC01EE0FFF1FE80FF91FE356FB4F418342834083215090F780E00E947D067F
:201E8000C701B6010E941F1321E30CC0822F90E0FC01EE0FFF1FE80FF91FE356FB4F1182C1
:201EA00012821082215090F780E00E947D06B601C701FF90EF90DF90CF9008951F920F9235
:201EC0000FB60F9211248F9381E080939A048F910F900FBE0F901F901895CF9384B18C6227
:201EE00084B980E58CBD1DBC8CB58CBD3D9A87B1877E87B988E180937E0010927C0087E0C1
:201F000080937A0080917A00806880937A0080917A00806480937A0010927B000E945C0617
:201F200052985A9A82E08093690081E08DBB8AB1806E8AB98BB18F718BB9209A28980E9434
:201F4000650880E00E947D0683E00E941F048DEE91E09F938F930E94D91B84E00E941F0468
:201F6000CFB7F8940F900F900E949C038111FCCFCFBFCF910895C0E0D0E077247A94812C42
:201F8000912C5401C12CD12C760101E012E049E0242E312C5CE1652E0E945C06123039F0E4
:201FA000133009F49EC0113009F039C085C0872D8F5F011105C001E089301CF400E001C047
:201FC00001E0992787FD9095B1010E94AD19782E002389F0689EF001699EF00D1124EE5EDF
:201FE000FD4FC590D490E12CF12C01E0C114D104E104F104E1F2282F362D2303F001112474
:20200000E05FFD4F85919491C82FD92F6AE070E080E090E0812C912C540113E069C083E053
:202020000E941F04002329F0B701A60182E193E005C040E050E0BA0187E193E0272D332711
:2020400027FD30952901EFEF4E1A5E0A7F936F935F934F939F938F935F924F92629EC001F0
:20206000639E900D112486509E4F9F938F9386EF92E09F938F930E94D91B84E00E941F047C
:202080008BB135E0440C551C3A95E1F78F7184298BB92DB73EB7245F3F4F0FB6F8943EBF5E
:2020A0000FBE2DBF002311F0289A01C0289881E0FE01099511E01CC080E0FE010995309177
:2020C0009A04332329F010929A04011118C019C0002371F001E08C149D04AE04BF0438F4A9
:2020E00007C06AE070E080E090E010E001C012E0860E971EA81EB91E0E941F134DCF77249B
:202100007A9400E0F4CF83B7817F83BF83B7816083BF889583B78E7F83BFF5CFCF93DF93F7
:20212000EC0185E0673B780711F45C9806C085E0C73BD80711F45C9A03C0C617D70739F085
:202140007093CF056093CE05CE010E949A021D86DF91CF91089587EB95E00895CF92DF926F
:20216000EF92FF920F931F93CF93FC01009789F16115710571F14115510559F18189928920
:20218000C388D488E588F688DC0118C0CD91CA35A9F0DA010D931D932D933C931397838992
:2021A0009489A589B689801B910BA20BB30BFB0180839183A283B38380E00CC08D01081BA8
:2021C000190B20E030E00C151D052E053F05F0F2E0CF89ECCF911F910F91FF90EF90DF90DE
:2021E000CF9008958091D0059091D10501969093D1058093D00508958091D0059091D10514
:20220000892B29F42091CE053091CF0502C020E030E0C9010895CF93DF93DB010097A1F1C2
:20222000109791F1EC0128813981F901E901309731F0528112964C9112974517F8F4E21717
:20224000F30761F4EC01B983A8831A961C921E9219971C96FC93EE931B970AC01A96DC93C0
:20226000CE9319971C96FC93EE931B97BC87AB87309711F0B287A18780E007C05385448573
:20228000EF01E52FF42FD3CF89ECDF91CF910895CF93DF930097A9F0DC01ED91FC913097E0
:2022A00091F0A385B485EC01B983A883109721F01A961C921E921997128611861486138610
:2022C00002C0E0E0F0E0CF01DF91CF910895CF93DF930097B1F0DC01ED91FC91309799F02B
:2022E0002281621770F0A385B485EC01B983A883109749F01A961C921E92199714861386DC
:2023000002C0E0E0F0E0CF01DF91CF91089581E08093B4056FEF85EB95E00E94671100970D
:2023200031F09093CF058093CE050C94CB020895FF920F931F93CF93DF939091B405992346
:2023400059F1FFB6F894C091CE05D091CF059D85913031F485EB95E00E944811BC0118C01C
:202360006A81813009F407C06623A9F070E06150710977FD10C085EB95E00E9467118C0190
:20238000009749F0BE0185EB95E00E940B11B801CE010E948E10FFBEDF91CF911F910F9166
:2023A000FF9008952091D0053091D105215031093093D1052093D0050C9498116F927F92AD
:2023C0008F929F92AF92BF92CF92DF92EF92FF920F931F93CF93DF93CDB7DEB73C01009720
:2023E00009F45CC04115510509F458C0E114F10409F454C0A114B104C104D10409F44EC0F9
:20240000FC01158662831286118614861386108A1786548343830583168327833087B501D1
:20242000615071096E0D7F1D81100DC0C3010E9481131FB7F894B30185EB95E00E940B1149
:2024400081111CC01EC0FC01F28AE18AA38AB48AC58AD68A450156018AE50AC0F701E80D6F
:20246000F91D31978083F1E08F1A9108A108B108181419041A041B048CF3D8CF1FBF8CEC04
:2024800010C01FBF8091B405813051F40E94FC10892B31F080E00E94981102C089EC01C0A8
:2024A00080E0DF91CF911F910F91FF90EF90DF90CF90BF90AF909F908F907F906F90089539
:2024C0008F92AF92BF92CF92DF92EF92FF920F931F931092CF051092CE051092B605109227
:2024E000B5051092B405549A5C98822E5A016B017C0100E010E0980143E850E16FEF87EB5C
:2025000095E00E94DE111F910F91FF90EF90DF90CF90BF90AF908F900895CF93009751F005
:20252000CFB7F894FC016081718185EB95E00E940B11CFBFCF910895FC01009701F1808104
:202540009181892BE1F04481558166817781452B462B472BA1F02FB7F8948091D20590910B
:20256000D305009719F41186108602C091878087F093D305E093D2052FBF80E0089589ECCC
:2025800008956091D4057091D5058091D6059091D70508950F931F93CF93DF938091B40581
:2025A000882309F447C08091D4059091D505A091D605B091D7050196A11DB11D8093D4054F
:2025C0009093D505A093D605B093D705C091D205D091D3058E012CC08C819D81AE81BF815B
:2025E0000197A109B1098C839D83AE83BF83892B8A2B8B2BC9F42091D2053091D305888533
:202600009985C217D30729F49093D3058093D20503C0F80191878087E881F981309729F049
:202620008A819B81099501C08E010884D985C02D209791F6DF91CF911F910F910895CF9252
:20264000DF92EF92FF921F93CF93DF93CDB7DEB72C970FB6F894DEBF0FBECDBF6B017C0165
:202660000E94FC10FC01C114D104E104F10421F1009721F11FB7F89481E08587FC87EB87AC
:202680008DE892E19A838983CE010B969C838B83CD82DE82EF82F886CE010196908B87875F
:2026A0000E949C121FBF882311F08DEC08C080E00E94981180E003C089EC01C088EC2C96C5
:2026C0000FB6F894DEBF0FBECDBFDF91CF911F91FF90EF90DF90CF9008950E94FC10789400
:2026E000009771F0DC011396ED91FC911497309739F015966D917D918D919C911897099468
:2027000008952DE633E1FB01208331973083FB0132971082FB0133971082FB0134971082D3
:20272000FB0135971082FB0136971082FB0137971082FB0138971082FB0139971082FB01D1
:202740003A971082FB013B971082FB013C971082FB013D971082FB013E971082FB013F97BE
:202760001082FB0170971082FB0171971082FB0172971082FB017397108264517109FC0141
:202780007183608308955058BB27AA270ED0E0C0D1D030F0D6D020F031F49F3F11F41EF45B
:2027A000C6C00EF4E095E7FBBCC0E92FE2D080F3BA17620773078407950718F071F49EF5A6
:2027C000FAC00EF4E0950B2EBA2FA02D0B01B90190010C01CA01A0011124FF27591B99F0B1
:2027E000593F50F4503E68F11A16F040A22F232F342F4427585FF3CF469537952795A795AD
:20280000F0405395C9F77EF41F16BA0B620B730B840BBAF09150A1F0FF0FBB1F661F771FDB
:20282000881FC2F70EC0BA0F621F731F841F48F4879577956795B795F7959E3F08F0B3CF5C
:202840009395880F08F09927EE0F97958795089598D088F09F5790F0B92F9927B751A0F089
:20286000D1F0660F771F881F991F1AF0BA95C9F712C0B13081F09FD0B1E008959CC0672F61
:20288000782F8827B85F39F0B93FCCF3869577956795B395D9F73EF4909580957095619549
:2028A0007F4F8F4F9F4F0895E89409C097FB3EF490958095709561957F4F8F4F9F4F99234D
:2028C000A9F0F92F96E9BB279395F695879577956795B795F111F8CFFAF4BB0F11F460FFCE
:2028E0001BC06F5F7F4F8F4F9F4F16C0882311F096E911C0772321F09EE8872F762F05C072
:20290000662371F096E8862F70E060E02AF09A95660F771F881FDAF7880F9695879597F9D0
:20292000089597F99F6780E870E060E008959FEF80EC089500240A94161617061806090600
:20294000089500240A9412161306140605060895092E0394000C11F4882352F0BB0F40F44B
:20296000BF2B11F460FF04C06F5F7F4F8F4F9F4F089557FD9058440F551F59F05F3F71F0F5
:202980004795880F97FB991F61F09F3F79F087950895121613061406551FF2CF4695F1DFEE
:2029A00008C0161617061806991FF1CF86957105610508940895E894BB2766277727CB01EB
:2029C00097F908950BD0C4CFB5DF28F0BADF18F0952309F0A6CFABCF1124EECFCADFA0F341
:2029E000959FD1F3950F50E0551F629FF001729FBB27F00DB11D639FAA27F00DB11DAA1F80
:202A0000649F6627B00DA11D661F829F2227B00DA11D621F739FB00DA11D621F839FA00DE3
:202A2000611D221F749F3327A00D611D231F849F600D211D822F762F6A2F11249F57504085
:202A40008AF0E1F088234AF0EE0FFF1FBB1F661F771F881F91505040A9F79E3F510570F0EB
:202A600060CFAACF5F3FECF3983EDCF3869577956795B795F795E7959F5FC1F7FE2B880F9F
:202A8000911D9695879597F908959F935CD00F9007FCEE5F7FC011F40EF449CF3EC071DF1B
:202AA000D0F39923D9F3CEF39F57550B87FF43D00024A0E640EA900180585695979528F4AB
:202AC000805C660F771F881F20F026173707480730F4621B730B840B202931294A2BA6958D
:202AE00017940794202531254A2758F7660F771F881F20F026173707480730F4620B730B9A
:202B0000840B200D311D411DA09581F7B901842F9158880F9695879508959F3F31F09150EF
:202B200020F4879577956795B795880F911D9695879597F9089591505040660F771F881F35
:202B4000D2F70895F4CE1DDFE8F3E894E0E0BB279F57F0F02AED3FE049EC06C0EE0FBB0F8A
:202B6000661F771F881F28F0B23A62077307840728F0B25A620B730B840BE3959A9572F773
:202B8000803830F49A95BB0F661F771F881FD2F79048C5CFEF93E0FF06C0A2EA2AED3FE080
:202BA00049EC5FEB02DED4DE0F90039401FC9058E8E6F0E000C09F938F937F936F93FF9391
:202BC000EF939B01AC01FEDEEF91FF9105D02F913F914F915F91F6CEDF93CF931F930F931D
:202BE000FF92EF92DF927B018C01689405C0DA2EEF01F4DEFE01E894A591259135914591BB
:202C00005591AEF3EF01D1DDFE019701A801DA9479F7DF90EF90FF900F911F91CF91DF91D4
:202C20000895A3E1B0E0E7E1F6E10C94131A7C015B018A01FC0117821682838181FD03C0A0
:202C40006DC3860105C088248394912C8C0E9D1EF7019381F50193FD859193FF81915F0177
:202C6000882309F457C3853239F493FD859193FF81915F01853231F4B70190E00E94AD1B96
:202C80006801DFCF412C512C20E02032A8F48B3261F028F4803251F0833271F40BC08D3284
:202CA00039F0803349F4216028C02260246025C0286023C0206121C027FD27C0382F3053E5
:202CC0003A3078F426FF06C0FAE04F9E300D1124432E13C08AE0589E300D1124532E2062E1
:202CE0000CC08E3221F426FD15C3206406C08C3611F4206802C0883641F4F50193FD85914E
:202D000093FF81915F018111C0CF982F9554933018F42061805E06C0982F9556933008F07D
:202D2000A1C12F7E26FD02C056E0452E4FE3742E7222853619F4F0E47F2A07C0863619F4B9
:202D400020E8722A02C041104A9477FE07C03BE3341548F0342C339427E00DC087E0841508
:202D600030F0242D07C027E03CE3332E04C027E097E0492E312C680194E0C90ED11CF801E4
:202D80006081718182819381032DA4010E94B61A8C0129812C8720FF02C023FF07C071FCE1
:202DA00008C072FE09C080E2682E07C0BDE26B2E04C0ABE26A2E01C0612C8C858C70A1F145
:202DC000662011F084E001C083E0851510F0512C0BC0581A73FC08C0B70180E290E00E942D
:202DE000AD1B5A94C9F7F3CF662029F0B701862D90E00E94AD1B3C8533FD03C000EE13E022
:202E00000CC00CED13E009C071108052B70190E00E94AD1B0F5F1F4F02C080E17822F801BA
:202E200084918111F1CF73C277FE0EC0300E2C8524FF04C08A81813309F43A9413144CF5EB
:202E400038E0331548F12CC076FC2AC0242D30E02017310744F00C3F8FEF180724F090E819
:202E6000792A01C04A94442049F0E2E0F0E0EC0FFD1FE40DF11D80818033A1F377FE10C03E
:202E8000342C3394242D30E00217130744F4401A07C03324339404C0F8E03F2E01C0412CC9
:202EA00077FE07C0101611063CF498012F5F3F4F05C025E030E002C021E030E0662011F080
:202EC0002F5F3F4F442031F0442D50E04F5F5F4F240F351F452D50E02417350714F4521A40
:202EE00001C0512C872D897049F406C0B70180E290E00E94AD1B5A945110F8CF662029F03B
:202F0000B701862D90E00E94AD1B73FC09C006C0B70180E390E00E94AD1B5A945110F8CF63
:202F200077FE53C0380117FF02C0612C712C1E861D86980123193109388B2F8718012618A8
:202F40003708280C391C642D70E022273327261B370B3A8B298B3FEF6316730629F4B70134
:202F60008EE290E00E94AD1B061517055CF02F8538892615370534F4ED85FE85E20DF31D7C
:202F8000818101C080E331E0631A71082D853E852F5F3F4F3E872D8729893A896216730694
:202FA0002CF0B70190E00E94AD1BD5CF6016710649F49A81963328F4953321F43C8534FDC6
:202FC00001C081E3B70190E04AC08A81813319F02C852F7E2C87B70190E00E94AD1B4110DE
:202FE00005C074FE16C085E490E015C0B7018EE290E00E94AD1BE2E06E2EF401E60DF11DC0
:203000006394B701808190E00E94AD1B4A94A9F7E8CF85E690E0B7010E94AD1B17FD06C01A
:203020000115110541F43C8534FF05C01195019511098DE201C08BE2B70190E00E94AD1BF1
:2030400080E303C08F5F0A5011090A301105D4F7B70190E00E94AD1BB701C801C0960E94C2
:20306000AD1B55C1833631F0833781F0833509F05EC024C0680182E0C80ED11CF801808132
:20308000898366246394712C840114C06801F2E0CF0ED11CF8010081118126FF03C0642D23
:2030A00070E002C06FEF7FEFC8012B8B0E94A21B3C012B896FE7462E422217C06801F2E023
:2030C000CF0ED11CF8010081118126FF03C0642D70E002C06FEF7FEFC8012B8B0E94971BF0
:2030E0003C012B8950E8452E422A43FC1CC006C0B70180E290E00E94AD1B5A94852D90E0E3
:2031000068167906A8F30FC0F80147FC859147FE81918F01B70190E00E94AD1B51105A942E
:20312000F1E06F1A71086114710471F7F0C0843611F0893661F5680127FF09C034E0C30EAD
:20314000D11CF80160817181828193810AC0F2E0CF0ED11CF80160817181882777FD809535
:20316000982F4FE6742E722297FF09C090958095709561957F4F8F4F9F4FF0E87F2A2AE064
:2031800030E0A4010E94301C682E681847C0853731F43FEE732E72222AE030E024C099EFA6
:2031A000792E72228F36B9F020F4883509F0B2C00DC0803721F0883709F0ACC002C020E1AE
:2031C000722A74FE0BC034E0732A08C024FF09C086E0782A06C028E030E005C020E130E0F5
:2031E00002C020E132E0680177FE09C094E0C90ED11CF801608171818281938108C0F2E09E
:20320000CF0ED11CF8016081718180E090E0A4010E94301C682E6818FFE77F2276FE0BC0D9
:20322000072D0E7F641450F474FE0AC072FC08C0072D0E7E05C0162D072D03C0162D01C0DC
:20324000142D04FF0CC0FE01E60DF11D8081803311F4097E08C002FF05C01E5F04C0802FA0
:20326000867809F01F5F03FD12C000FF0DC0462C151550F4450C411A152D06C0B70180E28D
:2032800090E00E94AD1B1F5F1515C0F304C0151510F4511A01C0512C04FF10C0B70180E370
:2032A00090E00E94AD1B02FF1EC001FF03C088E590E002C088E790E0B7010CC0802F8678E3
:2032C00091F001FD02C080E201C08BE207FD8DE2B70190E00E94AD1B06C0B70180E390E0C7
:2032E0000E94AD1B4A946414C0F36A94F401E60DF11DB701808190E00E94AD1B6110F5CF9F
:2033000006C0B70180E290E00E94AD1B5A945110F8CF97CCF7012681378102C02FEF3FEF15
:20332000C9016396E2E10C942F1AA29FB001B39FC001A39F01D0B29F700D811D1124911DB7
:203340000895991B79E004C0991F961708F0961B881F7A95C9F780950895AA1BBB1B51E1FC
:2033600007C0AA1FBB1FA617B70710F0A61BB70B881F991F5A95A9F780959095BC01CD0132
:20338000089597FB072E16F4009407D077FD09D00E94AD1907FC05D03EF4909581959F4F6C
:2033A0000895709561957F4F0895A1E21A2EAA1BBB1BFD010DC0AA1FBB1FEE1FFF1FA21752
:2033C000B307E407F50720F0A21BB30BE40BF50B661F771F881F991F1A9469F76095709550
:2033E000809590959B01AC01BD01CF010895052E97FB16F4009407D057FD0DD00E94D51924
:2034000007FC09D07EF490958095709561957F4F8F4F9F4F089550954095309521953F4F2F
:203420004F4F5F4F08952F923F924F925F926F927F928F929F92AF92BF92CF92DF92EF92F6
:20344000FF920F931F93CF93DF93CDB7DEB7CA1BDB0B0FB6F894DEBF0FBECDBF09942A8839
:20346000398848885F846E847D848C849B84AA84B984C884DF80EE80FD800C811B81AA8161
:20348000B981CE0FD11D0FB6F894DEBF0FBECDBFED0108950E949519A59F900DB49F900D34
:2034A000A49F800D911D112408958F929F92AF92BF92CF92DF92EF92FF92CF93DF93EC0133
:2034C000688179818A819B81611571058105910521F464E279ED8BE597E02DE133EF41E0E1
:2034E00050E00E94F71949015A019B01AC01A7EAB1E40E944A1A6B017C01ACEEB4EFA50104
:2035000094010E94911CC60ED71EE81EF91EF7FE06C081E0C81AD108E10880E8F80AC8826D
:20352000D982EA82FB82E894D7F8EE24FF24C601DF91CF91FF90EF90DF90CF90BF90AF90C6
:203540009F908F9008950E94551A08958EE091E00E94551A0895A0E0B0E080930E019093F0
:203560000F01A0931001B09311010895283008F027E03327DA01990F311D87FD9160009678
:203580006105710539F432602E5F3D9330E32A95E1F708959F3F30F080387105610509F061
:2035A0003C5F3C5F3D93913008F08068911DDF93CF931F930F93FF92EF92192F987F9695F2
:2035C000E92F96959695E90FFF27E25CFB4F99273327EE24FF24A701E7010590089407942C
:2035E00028F4360FE71EF81E491F511D660F771F881F991F0694A1F70590079428F4E70E9C
:20360000F81E491F561FC11D770F881F991F661F0694A1F70590079428F4F80E491F561F0E
:20362000C71FD11D880F991F661F771F0694A1F70590079420F4490F561FC71FD81F990F84
:20364000661F771F881F0694A9F784911095177041F0D695C79557954795F794E7941A95B8
:20366000C1F7E4EEF3E068941590159135916591959105907FE27395E118F10A430B560B23
:20368000C90BD009C0F7E10CF11E431F561FC91FD01D7EF4703311F48A95E6CFE894015063
:2036A00030F0080F0AF40027021708F4202F2395022F7A3328F079E37D932A95E9F710C0C1
:2036C0007D932A9589F6069497956795379517951794E118F10A430B560BC90BD00998F0DF
:2036E00023957E9173957A3308F070E37C932013B8F77E9170617D9330F0839571E37D9386
:2037000070E32A95E1F71124EF90FF900F911F91CF91DF91992787FD90950895FB01DC017D
:2037200002C005900D9241505040D8F70895FC010590615070400110D8F7809590958E0F5C
:203740009F1F0895FC016150704001900110D8F7809590958E0F9F1F08950F931F93CF9357
:20376000DF938C01EB018B8181FD03C00FEF1FEF1AC082FF0DC02E813F818C819D81281704
:20378000390764F4E881F9810193F983E88306C0E885F985802F0995892B41F78E819F811A
:2037A00001969F838E83C801DF91CF911F910F910895A2E0B0E0EFEDFBE10C94211AFE0115
:2037C000399661917191FA83E9830AED15E0D8018D919C91DC0113962C911397286013960F
:2037E0002C93AF010E941116D801ED91FC912381277F23832296E4E00C943D1AA0E1B0E039
:20380000E4E0FCE10C94211A0F89188D898D9A8D2EE02C831A83098397FF02C080E090E89C
:2038200001979E838D83AE01435E5F4F588B4F876B8D7C8DCE0101960E9411164D815E812B
:2038400057FD0AC02F813885421753070CF49A01F801E20FF31F10826096E4E00C943D1A50
:20386000FA01AA27283051F1203181F1E8946F936E7F6E5F7F4F8F4F9F4FAF4FB1E03ED0B0
:20388000B4E03CD0670F781F891F9A1FA11D680F791F8A1F911DA11D6A0F711D811D911DE5
:2038A000A11D20D009F468943F912AE0269F11243019305D3193DEF6CF010895462F477086
:2038C000405D4193B3E00FD0C9F7F6CF462F4F70405D4A3318F0495D31FD4052419302D01E
:2038E000A9F7EACFB4E0A6959795879577956795BA95C9F700976105710508959B01AC01E8
:203900000A2E06945795479537952795BA95C9F7620F731F841F951FA01D0895B7FF0C946C
:203920004A1A0E944A1A821B930B0895F894FFCF0000000200000000740300000000010071
:02394000000085
:00000001FF
